:020000040000FA
:020000002A28AC
:08000800F1000308F2000A08F0
:10001000F3008C1E1F28831218080639031D26289A
:100020000408F000560884001A0880007008840054
:10003000D60A50305606031D1F284030D6007308DC
:100040008A0072088300F10E710E090018121A0856
:1000500018161F28A001A101A201A301A401A50156
:10006000A601A701A801A901AA010130AB00063031
:10007000AC004030D600D700F701F80186018701B7
:10008000FF3083168500F4008600F5008700F60037
:1000900083129420D1015108D2000030D3000821EE
:1000A000D10A0E305102031C4B28953083169F0055
:1000B000831280309F00283083169B0083121F1408
:1000C0007E202B1C6B2897308E200730A2207E20AC
:1000D0000030A2207E20AD012C082D0203186028DC
:1000E000CE24A1302D078E202F0D2E0D07398E2006
:1000F0002F087F398E207E20AD0A6C2856085706BF
:10010000031908005708840000081F22D70A50303E
:100110005706031D7E284030D7007E288316981C82
:100120008F2883129900080083162F309900181524
:1001300083129817831698168C16831218160B17AD
:100140008B170800DA01D900D100D501D4010314BE
:10015000D50DD40DD1080319B828D103A828D10A88
:10016000073051060319C328D90A0310D50DD40D41
:1001700026085505031DAF2825085405031DAF2883
:100180008524DA0CAF280310DA0C5A088E200800F8
:10019000871B03140800071B03140800871A0314A5
:1001A0000800071A0314080087190314080006182A
:1001B00003140800061A03140800861B0314080021
:1001C000061B03140800861A0314080007190314F9
:1001D000080087180314080007180314080086187D
:1001E000031408008530FE288D30FE289530FE2847
:1001F000A530FE288730FE288F30FE289F001F196B
:10020000FF281E08AE0083161E088312AF000800E8
:1002100000305306031D4D29982C26102810F61780
:1002200076088316870083120800A610A810761798
:10023000102926112811F6161029A611A8117616D4
:10024000102926122812F6151029A612A8127514C4
:100250007508831686008312080026132813751666
:100260002829A613A813F517282925102710751774
:100270002829A510A710F51628292511271176156C
:100280001029A511A711F61410292512271276148A
:100290001029A512A712F5142829013053060319B5
:1002A0008429AA2C0800080026152811F612102906
:1002B000A615A8117612102926162812F611102953
:1002C000A616A81275102829261728137512282992
:1002D000A617A813F5132829251427107513282904
:1002E000A514A710F5122829251527117611102914
:1002F000A515A711F610102925162712761010291A
:10030000A516A712F5102829023053060319080074
:10031000BC2C0800080026152815F6121029A61571
:10032000A8157612102926162816F6111029A616D9
:10033000A816751028292617281775122829A61718
:10034000A817F51328292514271475132829A5148F
:10035000A714F51228292515271576111029A5159A
:10036000A715F61010292516271676101029A516A0
:10037000A716F51028297808870008007708860056
:100380000800F817031CF813BB297817031C78130F
:10039000BB29F816031CF812BB297816031C781227
:1003A000BB29F815031CF811BB297714031C77101F
:1003B000BE297716031C7712BE29F717031CF71303
:1003C000BE297717031C7713BE29F716031CF712F3
:1003D000BE297815031C7811BB29F814031CF810EA
:1003E000BB297814031C7810BB29F714031CF710E1
:1003F000BE29AB0108002B14080003010A2A0130B2
:100400000A2A02300A2A03300A2A04300A2A05304E
:100410000A2A0630AC0008000230A0005808A100EB
:1004200008000130A0005808A100080024140800AA
:10043000F0308E2000308E2001308E200800D80051
:10044000A0080319462AA003223020078400580878
:100450008000A10803190800A008031D0800D82C7B
:100460002308D2000230D3000821442A2208D200F7
:100470000030D3000821442A2308D2000230D300E0
:100480000821442A442A442AA1010800D81B002C30
:100490002808FF3A2605D5002708FF3A2505D4008D
:1004A000241C7E2AD51F582A031058180314DD2156
:1004B000541C5E2A0310D8180314E121D41C642AAA
:1004C000031058190314E521541D6A2A0310D81982
:1004D0000314E921D41D702A0310581A0314ED21C6
:1004E000541E762A0310D81A0314F121D41E7C2A34
:1004F0000310581B0314F521A4010800551C842A7D
:10050000031058180314C121D51C8A2A0310D818C7
:100510000314C521551D902A031058190314C9212D
:10052000D51D962A0310D8190314CD21551E9C2AD7
:100530000310581A0314D121D51EA22A0310D81A69
:100540000314D521551FA82A0310581B0314D921C1
:020550000800A1
:1008000004308A0058087F398207080008000D2943
:10081000152919291D29212925292D29312935296C
:1008200039293D294129452949290800080008009E
:10083000080008000800F929FB2908000800080042
:1008400008000800080008000800FD29FF29012A07
:10085000032A052A072A092A0800080008000800B8
:100860000800080008000800080008000800080048
:100870000800080008000800080008000800080038
:100880000800080008000800080008000800080028
:1008900008000800080008000800522953295429BC
:1008A00058295C296029642968296C2970297429D0
:1008B00078297C2980290800080008000800080021
:1008C00008000800080008000800080008000800E8
:1008D00008000800162A08000800080008000800A0
:1008E00008000800080008000800182A080008008E
:1008F0000800080008000800080008000800112A85
:100900000C2A112A0C2A112A080004308A005908DE
:1009100003108207C828CB28CE28D128D428D7286E
:10092000DA28DD28E028E328E628E928EC28EF2863
:1009300004308A00520882070D29152919291D291A
:10094000212925292D293129352939293D294129CF
:100950004529492904308A0052088207522953291F
:10096000542958295C296029642968296C2970292F
:10097000742978297C29802904308A00520882074A
:1009800089298A298B298F29932997299B299F298E
:10099000A329A729AB29AF29B329B72904308A0095
:1009A0002D088207F228F428F628F828FA28FC28CF
:1009B00004308A00FA3021028207362A302A422A7D
:0409C0003C2A432A60
:02400E00A23FCF
:02401000BC3FB3
:00000001FF
